{
  "contractName": "DocumentRegistry",
  "abi": [
    {
      "anonymous": false,
      "inputs": [
        {
          "indexed": true,
          "internalType": "bytes32",
          "name": "docHash",
          "type": "bytes32"
        },
        {
          "indexed": false,
          "internalType": "address",
          "name": "owner",
          "type": "address"
        },
        {
          "indexed": false,
          "internalType": "uint256",
          "name": "blockTimestamp",
          "type": "uint256"
        }
      ],
      "name": "DocumentRegistered",
      "type": "event"
    },
    {
      "inputs": [
        {
          "internalType": "bytes32",
          "name": "docHash",
          "type": "bytes32"
        }
      ],
      "name": "register",
      "outputs": [],
      "stateMutability": "nonpayable",
      "type": "function"
    },
    {
      "inputs": [
        {
          "internalType": "bytes32",
          "name": "docHash",
          "type": "bytes32"
        }
      ],
      "name": "getProof",
      "outputs": [
        {
          "internalType": "address",
          "name": "owner",
          "type": "address"
        },
        {
          "internalType": "uint256",
          "name": "blockTimestamp",
          "type": "uint256"
        }
      ],
      "stateMutability": "view",
      "type": "function",
      "constant": true
    }
  ],
  "bytecode": "0x6080604052348015600e575f5ffd5b506103c28061001c5f395ff3fe608060405234801561000f575f5ffd5b5060043610610034575f3560e01c80631b80bb3a14610038578063e1fa8e8414610069575b5f5ffd5b610052600480360381019061004d919061026b565b610085565b6040516100609291906102ed565b60405180910390f35b610083600480360381019061007e919061026b565b6100cc565b005b5f5f5f5f5f8581526020019081526020015f209050805f015f9054906101000a900473ffffffffffffffffffffffffffffffffffffffff1681600101549250925050915091565b5f73ffffffffffffffffffffffffffffffffffffffff165f5f8381526020019081526020015f205f015f9054906101000a900473ffffffffffffffffffffffffffffffffffffffff1673ffffffffffffffffffffffffffffffffffffffff161461016b576040517f08c379a00000000000000000000000000000000000000000000000000000000081526004016101629061036e565b60405180910390fd5b60405180604001604052803373ffffffffffffffffffffffffffffffffffffffff168152602001428152505f5f8381526020019081526020015f205f820151815f015f6101000a81548173ffffffffffffffffffffffffffffffffffffffff021916908373ffffffffffffffffffffffffffffffffffffffff16021790555060208201518160010155905050807f6569e54c43a697fc61e67763858d5abef16899d2b13215c7c07090aa878b24a833426040516102299291906102ed565b60405180910390a250565b5f5ffd5b5f819050919050565b61024a81610238565b8114610254575f5ffd5b50565b5f8135905061026581610241565b92915050565b5f602082840312156102805761027f610234565b5b5f61028d84828501610257565b91505092915050565b5f73ffffffffffffffffffffffffffffffffffffffff82169050919050565b5f6102bf82610296565b9050919050565b6102cf816102b5565b82525050565b5f819050919050565b6102e7816102d5565b82525050565b5f6040820190506103005f8301856102c6565b61030d60208301846102de565b9392505050565b5f82825260208201905092915050565b7f4861736820616c726561647920726567697374657265642e00000000000000005f82015250565b5f610358601883610314565b915061036382610324565b602082019050919050565b5f6020820190508181035f8301526103858161034c565b905091905056fea264697066735822122038f1c20538689d157733a004e2249d35d501fa6bbb3ef7e34789c2f6c056551a64736f6c634300081e0033",
  "immutableReferences": {},
  "source": "// SPDX-License-Identifier: MIT\r\npragma solidity ^0.8.0;\r\n\r\ncontract DocumentRegistry {\r\n    // Structure to hold registration details\r\n    struct DocumentProof {\r\n        address owner;\r\n        uint256 blockTimestamp;\r\n    }\r\n\r\n    // Mapping: SHA-256 Hash (bytes32) -> DocumentProof\r\n    mapping(bytes32 => DocumentProof) private proofs;\r\n\r\n    // Event for successful registration\r\n    event DocumentRegistered(bytes32 indexed docHash, address owner, uint256 blockTimestamp);\r\n\r\n    // Function to register a document hash\r\n    function register(bytes32 docHash) public {\r\n        // Check if the hash is already registered\r\n        require(proofs[docHash].owner == address(0), \"Hash already registered.\");\r\n\r\n        // Record the proof details\r\n        proofs[docHash] = DocumentProof(msg.sender, block.timestamp);\r\n\r\n        // Emit event\r\n        emit DocumentRegistered(docHash, msg.sender, block.timestamp);\r\n    }\r\n\r\n    // Function to retrieve registration details\r\n    function getProof(bytes32 docHash) public view returns (address owner, uint256 blockTimestamp) {\r\n        // Retrieve the proof\r\n        DocumentProof storage proof = proofs[docHash];\r\n        return (proof.owner, proof.blockTimestamp);\r\n    }\r\n}",
  "sourcePath": "C:\\Users\\jnane\\OneDrive\\Desktop\\CU\\Full stsck\\Project\\smart-contract\\contracts\\DocumentRegistry.sol",
  "compiler": {
    "name": "solc",
    "version": "0.8.30+commit.73712a01.Emscripten.clang"
  },
  "schemaVersion": "3.4.16",
  "updatedAt": "2025-11-06T03:41:11.009Z",
  "networkType": "ethereum",
  "devdoc": {
    "kind": "dev",
    "methods": {},
    "version": 1
  },
  "userdoc": {
    "kind": "user",
    "methods": {},
    "version": 1
  }
}